:0410000020EF5CF091
:0810080000C004F001C005F076
:1010100002C006F0076A03C008F000016F00D4FFA9
:1010200009F06F00D8FF0AF06F00DCFF0BF0390108
:1010300093A71EEF08F0A3B78CEF21F093AF24EF36
:1010400008F0A3BF84EF21F094A12AEF08F0A4B127
:101050002AEF1DF096A530EF08F0A6B55BEF21F062
:1010600096AD36EF08F0A6BD08EF1EF098AD3CEF48
:1010700008F0A8BD43EF1EF0600027F0F5FF600008
:101080002BF0F6FF60002FF0F7FF04C000F005C062
:1010900001F006C002F0078E08C003F01100F76AE5
:1010A000AE0FF66E100EF7220900F5501200280C54
:1010B0000106C00FF66E100EF7220900F55012005F
:1010C0000000C1C081C1400101C3C003800241C210
:1010D00001C6C006800741C70005C1C581C44004E0
:1010E00001CCC00C800D41CD000FC1CF81CE400E90
:1010F000000AC1CA81CB400B01C9C009800841C8A0
:1011000001D8C018801941D9001BC1DB81DA401A0F
:10111000001EC1DE81DF401F01DDC01D801C41DCDF
:101120000014C1D481D5401501D7C017801641D60F
:1011300001D2C012801341D30011C1D181D040101F
:1011400001F0C030803141F10033C1F381F240320F
:101150000036C1F681F7403701F5C035803441F4DF
:10116000003CC1FC81FD403D01FFC03F803E41FE8F
:1011700001FAC03A803B41FB0039C1F981F840389F
:101180000028C1E881E9402901EBC02B802A41EA0F
:1011900001EEC02E802F41EF002DC1ED81EC402CDF
:1011A00001E4C024802541E50027C1E781E640260F
:1011B0000022C1E281E3402301E1C021802041E01F
:1011C00001A0C060806141A10063C1A381A240620F
:1011D0000066C1A681A7406701A5C065806441A4DF
:1011E000006CC1AC81AD406D01AFC06F806E41AE8F
:1011F00001AAC06A806B41AB0069C1A981A840689F
:101200000078C1B881B9407901BBC07B807A41BA0E
:1012100001BEC07E807F41BF007DC1BD81BC407CDE
:1012200001B4C074807541B50077C1B781B640760E
:101230000072C1B281B3407301B1C071807041B01E
:101240000050C190819140510193C053805241920E
:101250000196C056805741970055C19581944054DE
:10126000019CC05C805D419D005FC19F819E405E8E
:10127000005AC19A819B405B0199C059805841989E
:101280000188C04880494189004BC18B818A404A0E
:10129000004EC18E818F404F018DC04D804C418CDE
:1012A0000044C184818540450187C047804641860E
:1012B0000182C042804341830041C181818040401E
:1012C000583220256325632563256325632563251F
:1012D000632563202020202000005831202563252D
:1012E000632563256325632563256325632020200B
:1012F00020200000706F736963616F202020253605
:101300004C640000656E74726164612020202020AE
:1013100020253033750020504152414D4554524FE5
:101320005320444520200000205445535445204775
:1013300052415641444F5320000020504152412019
:10134000434F4E54494E5541522000004C494245AE
:101350005245204F5320424F544F45530000414ABD
:10136000555354452020202020202025322E306641
:101370002525000053616972202020202D20202087
:10138000202B202000002020504F52544120534158
:101390004645545920200000736169722020207353
:1013A000696D2020206E616F00002020504F525444
:1013B0004120534146455459202000002020504FE1
:1013C000525441204154495641444F2000002020AE
:1013D000504F52544120534146455459202000005B
:1013E000504F525441204445534154495641444F73
:1013F00000002074696D657220667265657A657299
:101400003F2000007361697220202073696D2020E5
:10141000206E616F00002074696D65722020667215
:1014200065657A657220000020202020616A75734E
:10143000746172202020202000002074696D657284
:101440002020667265657A657220000020202020C9
:101450006D616E7469646F202020200054494D45F1
:101460005220202020253375204D696E00005361E5
:101470006972202020202D20202020202B200000F9
:1014800054494D455220202020253375204D696E4A
:1014900000002045535441204E4120454550524FB5
:1014A0004D20000020415449564152202020504FE9
:1014B000525441200000465245455A455220505250
:1014C000494D4549524F000020504F52544120464B
:1014D0005245455A45522020000073616972202010
:1014E0002073696D2020206E616F000020504F52E4
:1014F000544120465245455A455220200000205470
:10150000494D4552204154495641444F2020000046
:1015100020504F52544120465245455A45522020B2
:10152000000054494D4552204445534154495641C9
:10153000444F000020504F52544120465245455AD6
:10154000455220200000204E414F205045524D4929
:101550005449444F20200000464341204455504CFC
:101560004F20504152414441000073616972202074
:101570002073696D2020206E616F0000464341207A
:101580004455504C41205041524144410000464393
:101590004120202020202020415449564F20000087
:1015A000464341204455504C412050415241444112
:1015B00000004643412020202020494E41544956F6
:1015C0004F200000425220434F4E544147454D3F6B
:1015D0002020202000007361697220202073696D33
:1015E0002020206E616F000042522020434F4E5455
:1015F0004147454D202020200000434F4E54414795
:10160000454D20204154495641200000425220209F
:10161000434F4E544147454D202020200000434F6A
:101620004E544147454D20494E41544956410000D2
:10163000515444205245544F524E4F532025337538
:10164000000053616972202020202D2020202020BE
:101650002B200000515444205245544F524E4F53BA
:101660002025337500002045535441204E4120452C
:101670004550524F4D20000044454C4159204142B5
:101680004552545552413F20000073616972202039
:101690002073696D2020206E616F000044454C412D
:1016A00059204142455254555241202000004445A2
:1016B0004C41592020202020415449564F20000001
:1016C00044454C41592041424552545552412020F5
:1016D000000044454C4159202020494E4154495670
:1016E0004F20000054502044454C4159202533756B
:1016F00020534547000053616972202020202D208F
:10170000202020202B20000054502044454C4159DB
:101710002025337520534547000020455354412070
:101720004E4120454550524F4D2000002052454C1F
:101730004553205041206520504620200000736111
:10174000697220202073696D2020206E616F000077
:101750002052454C455320504120652050462020C2
:101760000000202020204154495641444F5320205E
:10177000202000002052454C455320504120652038
:1017800050462020000020204445534154495641F2
:10179000444F532020200000504120652050462017
:1017A00050554C5345203F20000073616972202042
:1017B0002073696D2020206E616F00002050412051
:1017C000652050462050554C5345202000002020D5
:1017D00020204154495641444F53202020200000EE
:1017E00020504120652050462050554C5345202024
:1017F000000020204445534154495641444F532052
:1018000020200000504F5320444553415420464F60
:10181000544F313F00002020202020202073696D8C
:101820002020206E616F0000706F732061747561FD
:101830006C25364C6400706F7320464620202025AE
:10184000364C64002020202020504F534943414F04
:1018500020202020000020202020204752415641F7
:1018600044412020202000002020202020504F53E1
:101870004943414F20202020000020202020204DDF
:10188000414E544944412020202000002020204384
:101890004F4E5441544F5245532020200000736155
:1018A000697220202073696D2020206E616F000016
:1018B00053414944415320434F4E5441544F5220C9
:1018C0000000202020204154495641444F532020FD
:1018D0002020000053414944415320434F4E54417E
:1018E000544F522000002020444553415449564152
:1018F000444F53202020000020202020202020536F
:10190000696D20204E616F20000020202020436F51
:101910006E6669726D613F2020200000202020202B
:1019200020202053692020204E6F202000002020FE
:101930002020436F6E6669726D613F202020000099
:101940002020202020205965732020204E6F202049
:101950000000202020436F6E6669726D203F2020BA
:1019600020200000205041524120434F4E54494E08
:10197000554152200000205041524120434F4E54C7
:10198000494E55415220000020464F5220534554A5
:1019900054494E472055502000004C49424552457D
:1019A000204F5320424F544F45530000204C494292
:1019B00045524520424F544F4E455320000052455A
:1019C0004C454153452020425554544F4E5300003E
:1019D0002020202020202020202020202020202007
:1019E0000000202020202020202020202020202037
:1019F00020200000204449474954452041205345B8
:101A00004E4841200000454E54524520434F4E540D
:101A1000524153454E41000020454E5445522050FE
:101A2000415353574F52442000004F6B2020202039
:101A30002020253175202020202025317520000010
:101A40002044494749544520412053454E484120B0
:101A50000000454E54524520434F4E545241534589
:101A60004E41000020454E5445522050415353579B
:101A70004F52442000004F6B202020202020253191
:101A80007520202020202531752000002044494762
:101A900049544520412053454E4841200000454EC1
:101AA00054524520434F4E54524153454E4100003D
:101AB00020454E5445522050415353574F524420D5
:101AC00000004F6B20202020202025317520202071
:101AD0002020253175200000202020202020534583
:101AE0004E48412020202020200020202020494E48
:101AF000434F5252455441212020200020202043B2
:101B00004F4E54524153454E41202020200020206A
:101B100020494E434F52524543544121202020003A
:101B2000202020202057524F4E47202020202020C8
:101B300020002020202050415353574F5244212051
:101B400020202000204C41444F204D4F544F522024
:101B50003F2020200000204C41444F204D4F544F47
:101B600052203F2020200000204D4F544F52205340
:101B7000494445203F202020000053696D2020204B
:101B80002020256320202020202563200000536989
:101B900020202020202025632020202020256320B5
:101BA000000059657320202020202563202020205C
:101BB000202563200000204C41444F204D4F544FBE
:101BC00052203F2020200000204C41444F204D4F08
:101BD000544F52203F2020200000204D4F544F52A0
:101BE0002053494445203F202020000053696D20A8
:101BF0002020202025632020202020256320000095
:101C0000536920202020202025632020202020250B
:101C100063200000596573202020202025632020A8
:101C200020202025632000002020204D4F544F52BB
:101C30002053494445202020000020204C41444F9F
:101C40002020204D4F544F522020000073616972B4
:101C50002020206573712020206469720000736168
:101C60006C69722020697A712020206465720000FE
:101C70004578697420204C656674205269676874E1
:101C80000000204D4F544F5220455351554552446A
:101C90004F3F00006772617661722065737120208A
:101CA0006469722000004D4F544F5220495A5155DB
:101CB000494552444F3F000067726162617220697A
:101CC0007A71202064657220000020204D4F544F0F
:101CD00052202020204C4546543F0000536574207C
:101CE000204C656674202052696768740000204D9E
:101CF0004F544F52204449524549544F203F000011
:101D00006772617661722065737120206469722048
:101D10000000204D4F544F52204445524543484FF8
:101D2000203F000067726162617220697A71202031
:101D300064657220000020204D4F544F52202052E5
:101D400049474854203F000053657420204C656685
:101D500074202052696768740000202046432041A7
:101D600042455254555241203F20000053696D2096
:101D70002020202025632020202020256320000013
:101D800020204643204150455254555241203F2087
:101D900000005369202020202020256320202020BF
:101DA00020256320000020204C494D495420204F1D
:101DB00050454E203F2000005965732020202020F0
:101DC0002563202020202025632000006772617693
:101DD00061646F20202025364C64000053616972D5
:101DE0002020446573636520536F6265000067724D
:101DF000616261646F20202025364C6400005361CD
:101E00006C6972204162616A6F20537562650000DF
:101E10005365745F6F6B2020202025364C640000D2
:101E20004578697420202020446F776E20205570FB
:101E30000000706F7320617475616C2025364C64EE
:101E40000000477261766120446573636520536FBB
:101E500062650000706F732061637475616C253674
:101E60004C6400004772616261204162616A6F20C8
:101E7000537562650000706F732061637475616CE7
:101E800025364C6400004578697420202020446F7A
:101E9000776E202055700000464320414245525441
:101EA00055524120494E543F000053696D20202077
:101EB0002020256320202020202563200000464389
:101EC00020415045525455524120494E543F000044
:101ED0005369202020202020256320202020202539
:101EE00063200000494E54204F50454E20204C495D
:101EF0004D49543F00005965732020202020256360
:101F00002020202020256320000067726176616414
:101F10006F20202025364C64000053616972202018
:101F2000446573636520536F626500006772616288
:101F300061646F20202025364C64000053616C6979
:101F400072204162616A6F205375626500005365BB
:101F5000745F6F6B2020202025364C64000045788C
:101F6000697420202020446F776E20205570000077
:101F7000706F7320617475616C2025364C640000AD
:101F8000477261766120446573636520536F6265B3
:101F90000000706F732061637475616C25364C644A
:101FA00000004772616261204162616A6F2053756F
:101FB00062650000706F732061637475616C253613
:101FC0004C6400004578697420202020446F776EAF
:101FD0002020557000002046432046454348414D8F
:101FE000454E544F203F000053696D202020202093
:101FF000256320202020202563200000202020466B
:1020000043204349455252453F2020200000536958
:102010002020202020202563202020202025632030
:10202000000020204C494D49542020434C4F53453B
:102030003F200000596573202020202025632020A8
:1020400020202025632000006772617661646F2084
:10205000202025364C6400005361697220204465BD
:1020600073636520536F626500006772616261642B
:102070006F20202025364C64000053616C6972206B
:102080004162616A6F205375626500005365745F39
:102090006F6B2020202025364C6400004578697441
:1020A00020202020446F776E202055700000706F34
:1020B0007320617475616C2025364C640000477292
:1020C00061766120446573636520536F626500002B
:1020D000706F732061637475616C25364C64000009
:1020E0004772616261204162616A6F205375626567
:1020F0000000706F732061637475616C25364C64E9
:1021000000004578697420202020446F776E2020DD
:102110005570000020414A205245442056454C202D
:102120004645203F000053696D2020202020256374
:102130002020202020256320000020414A205245F5
:10214000442056454C204345203F00005369202041
:10215000202020202563202020202025632000002F
:1021600053455420534C4F2053504420434C203F60
:102170000000596573202020202025632020202086
:102180002025632000007265647563616F20202044
:1021900025357525250053616972202020202D20CA
:1021A000202020202B200000726564756363696F16
:1021B0006E2025357525250053616C69722020201D
:1021C0002D20202020202B200000736C6F207261B6
:1021D00074652020253575252500457869742020F3
:1021E00020202D20202020202B20000072656475E7
:1021F00063616F20202025357525250047726176A3
:10220000617220202D20202020202B2000007265CC
:1022100064756363696F6E202535752525004772E7
:102220006162617220202D20202020202B200000C0
:10223000736C6F207261746520202535752525002B
:102240005365745F6F6B20202D20202020202B20D1
:102250000000677261766F752071756174726F200E
:102260002020000020414A205245442056454C2061
:102270004142203F000053696D202020202025632B
:102280002020202020256320000020414A205245A4
:10229000442056454C204150203F000053692020E7
:1022A00020202020256320202020202563200000DE
:1022B00053455420534C4F20535044204F50203FFF
:1022C0000000596573202020202025632020202035
:1022D0002025632000007265647563616F202020F3
:1022E00025357525250053616972202020202D2079
:1022F000202020202B200000726564756363696FC5
:102300006E2025357525250053616C6972202020CB
:102310002D20202020202B200000736C6F20726164
:1023200074652020253575252500457869742020A1
:1023300020202D20202020202B2000007265647595
:1023400063616F2020202535752525004772617651
:10235000617220202D20202020202B20000072657B
:1023600064756363696F6E20253575252500477296
:102370006162617220202D20202020202B2000006F
:10238000736C6F20726174652020253575252500DA
:1023900053657420202020202D20202020202B2059
:1023A0000000414A555354452020204C4F4F50497E
:1023B0004E470000414A555354452020204C4F4F72
:1023C00050494E470000204C4F4F50494E47202067
:1023D000534554555020000053696D202020202083
:1023E0002563202020202025632000005369202021
:1023F000202020202563202020202025632000008D
:1024000059657320202020202563202020202025AE
:1024100063200000414A55535445202020202020AD
:102420002025322E30662525000053616972202058
:1024300020202D202020202B20200000414A555311
:1024400054452020202020202025322E30662525AE
:10245000000053616C69722020202D202020202B49
:1024600020200000536574202056616C7565202083
:102470002025322E306625250000457869742020FD
:1024800020202D202020202B20200000414A5553C1
:1024900054452020202020202025322E306625255E
:1024A000000047726176617220202D202020202BB1
:1024B00020200000414A5553544520202020202050
:1024C0002025322E30662525000047726162617238
:1024D00020202D202020202B202000005365742058
:1024E0002056616C756520202025322E306625250A
:1024F000000053657420202020202D202020202B38
:102500002020000020434D44204D414E55414C2099
:102510003F202020000053696D20202020202563CB
:102520002020202020256320000053692020202027
:1025300020202563202020202025632000005965CD
:1025400073202020202025632020202020256320A8
:10255000000020434D44202020204D414E55414C49
:1025600020200000736169722066656368612061E4
:1025700062726520000073616C6972206162616A39
:102580006F207375626500004578697420202020F3
:10259000446F776E202055700000414A2054454D0D
:1025A000504F204645434841203F000053696D206D
:1025B00020202020256320202020202563200000CB
:1025C000414A205449454D50204349455252453FC8
:1025D0000000536920202020202025632020202077
:1025E00020256320000041444A20434C4F5345209E
:1025F00054494D45203F000059657320202020207C
:1026000025632020202020256320000054504645CB
:10261000434841202533752073656773000053617B
:102620006972202020202D20202020202B20000037
:1026300054504349455252452025337520736567F0
:10264000000053616C69722020202D202020202062
:102650002B2000005443434C4F5345202025337515
:1026600020736563000045786974202020202D20A8
:10267000202020202B200000545046454348412074
:102680002533752073656773000047726176617248
:1026900020202D20202020202B20000054504349B2
:1026A00045525245202533752073656700004772F7
:1026B000616261722020202D20202020202B20000C
:1026C0005443434C4F534520202533752073656395
:1026D00000005365742020202020202D2020202061
:1026E000202B20002054454D504F52495A41444F11
:1026F00052203F2000002054454D504F52495A412E
:10270000444F52203F200000202020202054494DDB
:102710004552203F20202020000053696D202020BA
:1027200020202563202020202025632000005369DD
:102730002020202020202563202020202025632009
:1027400000005965732020202020256320202020B0
:102750002025632000002054454D504F52495A41D6
:10276000444F52203F2000002054454D504F5249C5
:102770005A41444F52203F20000020202020205466
:10278000494D4552203F202020200000736169728E
:1027900020202073696D2020206E616F000073611E
:1027A0006C697220207369202020206E6F20000049
:1027B000457869742020796573202020206E6F2071
:1027C00000002054454D504F52495A41444F522029
:1027D000202000002054454D504F52495A41444F4B
:1027E000522020200000202020202054494D455216
:1027F0002020202020200000736169722020207397
:10280000696D2020206E616F000073616C69722019
:10281000207369202020206E6F20000045786974A5
:102820002020796573202020206E6F200000205426
:10283000454D504F52495A41444F522020200000EC
:102840002054454D504F52495A41444F5220202068
:102850000000202020202054494D455220202020D7
:10286000202000006772617661722073696D2020FC
:102870006E616F200000677261626172207369206F
:1028800020206E6F20200000736574202020796561
:10289000732020206E6F202000002054454D504FA3
:1028A00052495A41444F5220202000002054454DA7
:1028B000504F52495A41444F5220202000002020BE
:1028C00020202054494D4552202020202020000067
:1028D0006772617661722073696D20206E616F206E
:1028E00000006772616261722073692020206E6F40
:1028F000202000007365742020207965732020203B
:102900006E6F202000004944494F4D412F4C414EED
:1029100047554147453F0000532F59202020202094
:102920002563202020202025632000004944494FB2
:102930004D412F4C414E4755414745200000454EE3
:1029400047202020204553502020504F5254000053
:102950004944494F4D412F4C414E47554147452031
:102960000000454E47202020204553502020504F46
:10297000525400004944494F4D412F4C414E475558
:1029800041474520000020202020454E474C495318
:1029900048202020202000004944494F4D412F4C21
:1029A000414E4755414745200000202020204553F7
:1029B00050414E4F4C202020202000004944494FD8
:1029C0004D412F4C414E47554147452000002020A6
:1029D00020504F5254554755455320202020000089
:1029E000202020202053616972203F2020202020B9
:1029F000000053696D202020202025632020202006
:102A0000202563200000202020202053616C697263
:102A1000203F20202020000053692020202020205B
:102A20002563202020202025632000002020202056
:102A30002045786974203F2020202020000059651F
:102A400073202020202025632020202020256320A3
:102A50000000202020204154454E43414F2120209A
:102A60002020000020564F43452056414920454E26
:102A7000545241520000202020204154454E4349E9
:102A80004F4E202020200000202055535445442044
:102A9000454E5452415241200000202020205741F1
:102AA000524E494E47202020202000002020202088
:102AB000454E544552494E472020202000002020FA
:102AC000454D2054524F43412044452020200000D2
:102AD000202020504152414D4554524F5320202038
:102AE00000002020412043414D42494F20444520D1
:102AF00020200000202020504152414D4554524F8B
:102B0000532020200000202020204348414E4749E8
:102B10004E47202020200000202020202020534548
:102B2000545550202020202000002020434F4E5498
:102B300052412D53454E4841202000004F6B20202C
:102B400020202020253175202020202025317520AF
:102B500000002020434F4E5452412D53454E4841D2
:102B6000202000004F6B20202020202025317520C0
:102B7000202020202531752000002020434F4E5476
:102B800052412D53454E4841202000004F6B2020DC
:102B9000202020202531752020202020253175205F
:102BA000000020202020202053454E484120202096
:102BB0002020200020202020494E434F52524554CF
:102BC000412120202000414755415244414E444F6D
:102BD000204645434841000054454D504F2046454E
:102BE000434841522025334C7500455350455241CE
:102BF0004E444F2043455252415200005449454DE6
:102C0000504F2043455252412025334C75005741C7
:102C10004954494E4720544F20434C4F53450000E0
:102C200054494D452020434C4F5345202025334CDB
:102C30007500424520202020202020202020202018
:102C40002020000042412020202020202020202081
:102C500020202020000042452F424120202020201B
:102C60002020202020200000425220202020202050
:102C70002020202020202020000042452F425220EA
:102C800020202020202020202020000042412F4210
:102C90005220202020202020202020200000205012
:102CA00041524144412020414245525441200000BC
:102CB00042452F42412F4252202020202020202018
:102CC000000046312020202020202020202020200D
:102CD0002020000042452F463120202020202020A7
:102CE00020202020000042412F463120202020209B
:102CF000202020202020000042452F42412F463135
:102D00002020202020202020000042522F46312069
:102D100020202020202020202020000042452F427B
:102D2000522F463120202020202020200000424128
:102D30002F42522F4631202020202020202000002A
:102D400042452F42412F42522F4631202020202041
:102D5000000046322020202020202020202020207B
:102D60002020000042452F46322020202020202015
:102D700020202020000042412F4632202020202009
:102D8000202020202020000042452F42412F4632A3
:102D90002020202020202020000042522F463220D8
:102DA00020202020202020202020000042452F42EB
:102DB000522F463220202020202020200000424197
:102DC0002F42522F46322020202020202020000099
:102DD00042452F42412F42522F46322020202020B0
:102DE000000046312F4632202020202020202020A5
:102DF0002020000042452F46312F4632202020203F
:102E000020202020000042412F46312F4632202032
:102E1000202020202020000042452F42412F463113
:102E20002F46322020202020000042522F46312FF2
:102E300046322020202020202020000042452F4222
:102E4000522F46312F4632202020202020004241A0
:102E50002F42522F46312F463220202020200000C2
:102E600042452F42412F42522F46312F46322020D9
:102E700000004C2020202020202020202020202066
:102E80002020000042452F4C202020202020202000
:102E900020202020000042412F4C202020202020F4
:102EA000202020202020000042452F42412F4C208E
:102EB0002020202020202020000042522F4C2020C3
:102EC00020202020202020202020000042452F42CA
:102ED000522F4C2020202020202020200000424182
:102EE0002F42522F4C202020202020202020000084
:102EF00042452F42412F42522F4C2020202020209B
:102F0000000046312F4C202020202020202020208F
:102F10002020000042452F46312F4C202020202029
:102F200020202020000042412F46312F4C2020201D
:102F3000202020202020000042452F42412F4631F2
:102F40002F4C202020202020000042522F46312FDD
:102F50004C202020202020202020000042452F420D
:102F6000522F46312F4C20202020202000004241AB
:102F70002F42522F46312F4C2020202020200000AD
:102F800042452F42412F42522F46312F4C202020C4
:102F9000000046322F4C20202020202020202020FE
:102FA0002020000042452F46322F4C202020202098
:102FB00020202020000042412F46322F4C2020208C
:102FC000202020202020000042452F42412F463261
:102FD0002F4C202020202020000042522F46322F4C
:102FE0004C202020202020202020000042452F427D
:102FF000522F46322F4C000042412F42522F463270
:103000002F4C202020202020000042452F42412F1D
:1030100042522F46322F4C202020000046312F46AE
:10302000322F4C202020202020202020000042454C
:103030002F46312F46322F4C202020202020000008
:1030400042412F46312F46322F4C20202020202075
:10305000000042452F42412F46312F46322F4C204F
:103060002020000042522F46312F46322F4C202084
:1030700020202020000042452F42522F46312F466B
:10308000322F4C202020000042412F42522F463147
:103090002F46322F4C20200042452F42412F4252D2
:1030A0002F46312F46322F4C00004E414F204348CF
:1030B00045474F55204E41202020000025327520E5
:1030C00020202020202020202020202020002050F0
:1030D0004152414441202041424552544120000088
:1030E00020504152414441202041424945525441DF
:1030F0000000202020204F50454E2053544F502098
:103100002020000020504F52544120205041524175
:10311000444120200000202020454D204D4F444FA9
:103120002053544F2020000058312025632563256B
:103130006325632563256325632563204C50202583
:1031400063005831202563256325632563256325A6
:10315000632563256320202020200000454D455233
:1031600047454E43494120424F54414F0000454D91
:10317000455247454E43494120424F544F4E00006F
:10318000454D455247454E435920425554544F4EA4
:10319000000020202020202020202020202020206F
:1031A000202000004D414E4F504C412041434F5094
:1031B0004C41444100004445534C49474152205042
:1031C0002F5245534554000058312025632563256F
:1031D0006325632563256325632563204C502025E3
:1031E000630020504F5254412046454348414441DA
:1031F000202000002020494E54455254524156414F
:103200004441202000002050554552544120434560
:1032100052524144412000002020494E544552540E
:1032200052415641444120200000202020434C4F71
:1032300053454420444F4F52202000002020204975
:103240004E5445524C4F434B4544202000002045EE
:103250004E434F444552205245515545522000009F
:103260002020205245494E494349415220202020E8
:10327000000020202020504F53534956454C202019
:103280002020000053455249414C20494E5645529A
:1032900054494441000020202020202020202020CC
:1032A0002020202020200000656D657267656E6318
:1032B00069612020206C63640000626120616369A1
:1032C0006F6E61646F20202020200000414755412F
:1032D0005244414E444F2046454348410000544526
:1032E0004D504F204645434841522025334C7500F0
:1032F0004553504552414E444F204345525241524E
:1033000000005449454D504F2043455252415220F0
:1033100025324C75000057414954494E4720544FBF
:1033200020434C4F5345000054494D4520544F20F5
:10333000434C4F53452025324C75000074656D7029
:103340006F2066656368616D656E746F00007469F7
:10335000656D706F20646520636965727265000039
:103360002020636C6F7365202074696D65202000D8
:10337000202020202020202020202020202020204D
:10338000000020202020202020202020202020207D
:10339000202000002020202020202020202020206D
:1033A00020202020000045422032345F3020564348
:1033B0004F4445522020000056455253414F203083
:1033C000312E3033204B3432000056455253494F92
:1033D0004E2030312E30334B343200004D4F544F9D
:1033E00052205349444520202020202000004C41F9
:1033F000444F20204D4F544F5220202020200000C9
:10340000455351554552444F202020202020202054
:1034100000004449524549544F20202020202020BC
:1034200020200000495A5155494552444F20202040
:103430002020202000004445524543484F202020B2
:1034400020202020202000004C4546542020202011
:1034500020202020202020200000524947485420CE
:1034600020202020202020202020000054494D45ED
:103470005220202020202020202020200000544501
:103480004D504F52495A41444F52202020200000B5
:1034900046454348415220454D2025324C75207306
:1034A0006567000043455252415220454E20253267
:1034B0004C75207365670000434C4F534520494EBF
:1034C000202025324C752073656300004349434C2E
:1034D0004F5320444120504F525441200000434953
:1034E000434C4F53202020202025354C7500434964
:1034F000434C4F5320444120505545525441000005
:103500004349434C4F53202020202025354C750043
:10351000202020444F4F52204359434C45532020F4
:1035200000004359434C4553202020202025354C92
:103530007500504F525441202020465245455A456F
:103540005220000054494D455220415449564144AF
:103550004F202020000050554552544120465245EE
:10356000455A45522020000054494D4552204143C0
:1035700054495641444F20200000202046524545E2
:103580005A455220444F4F52202000002020205402
:10359000494D4552204F4E20202020200000504F02
:1035A000525441202020465245455A4552200000A1
:1035B00054494D4552204445534154495641444F86
:1035C000000050554552544120465245455A4552F7
:1035D0002020000054494D4552204E4F414354494C
:1035E0005641444F00002020465245455A4552203E
:1035F000444F4F522020000020202054494D455276
:10360000204F4646202020200000414A5553544573
:103610002020204C4F4F50494E47000053454E53F9
:1036200049422020202020202025322E30662525CA
:103630000000204C4F4F50494E472041444A5553BB
:103640005420000053454E53495420202020202070
:103650002025322E3066252500002052454C45534A
:1036600020504120652050462020000020202020AE
:103670004154495641444F532020202000002052FD
:10368000454C4553205041206520504320200000E8
:1036900020202020414354495641444F53202020AC
:1036A00000002052454C41595320444F20262044CD
:1036B00043200000202020202020204F4E202020CA
:1036C000202020200000494E5445522D424C4F519D
:1036D00055454F20202000002020202041544956ED
:1036E00041444F20202020200000494E5445522DB7
:1036F000424C4F5155454F202020000020202020D3
:10370000414354495641444F2020202000002020AE
:1037100020494E5445524C4F434B2020202000005E
:103720002020202020204F4E20202020202020203C
:1037300000002020202020204D4F444F202020201A
:1037400020200000202020202053414645545920AD
:103750002020202000002020202020204D4F444FFA
:10376000202020202020000020202020204E4F520A
:103770004D414C202020202000002020564D4F5449
:1037800045204D4F4442555320200000202020204A
:103790004154495641444F20202020200000202041
:1037A000564D4F5445204D4F444255532020000064
:1037B0002020202020204F4E2020202020202020AC
:1037C0000000202020202020202020202020202039
:1037D0002020000020202020202020202020202029
:1037E00020202020000001015E530CE0010E006E3D
:1037F0005D51016E04E0D8900036012EFCD70050D8
:103800002E130DD0010E006E5D51016E04E0D890B4
:103810000036012EFCD70050FF0A2E172F6B000137
:103820001200D8B204D0010EEA6E680EE96E006A8A
:10383000016A026A036A0101686B696B6A6B6B6BF0
:1038400067516611651164112CE0200E6C6FD890E1
:103850006037613762376337683769376A376B3784
:1038600067516B5D08E166516A5D05E16551695D0F
:1038700002E16451685D0FE36451685F6551D8A04F
:10388000653D695F6651D8A0663D6A5F6751D8A003
:10389000673D6B5FD88000360136023603366C2FE9
:1038A000D6D76000A3F5EFFF6000A7F5ECFF60003E
:1038B000ABF5ECFF6000AFF5ECFF00011200010179
:1038C0009969986995519507000A28E0600053F6B8
:1038D000EAFF9351932BD8B4942BE96EEF509819CB
:1038E000966F99C197F199C198F1996B96C19AF128
:1038F0009B6BD8909635026E9B35036E025060002C
:103900000FF0F7FF000159EC08F009006F00D4FF39
:1039100003F00101981B0350991BD4D798C101F003
:1039200099C102F00001F2EF1CF03901A3A9FED702
:103930003D01EA6F000112005CC15DF1100E010152
:103940005E6F5F6B606B616B0B0E626F160E636F69
:10395000BEC064F10101BDC065F10101C0C066F1E6
:103960000101BFC067F10101C2C068F10101C1C01E
:1039700069F10101C4C06AF10101C3C06BF1010129
:10398000C6C06CF10101C5C06DF10101C8C06EF186
:103990000101C7C06FF10101CAC070F10101C9C0C6
:1039A00071F10101CCC072F10101CBC073F10101D1
:1039B000CEC074F10101CDC075F10101D0C076F126
:1039C0000101CFC077F10101D2C078F10101D1C06E
:1039D00079F10101010E946F5D0E936F1D0E956FCD
:1039E00000016DD702C092F101C091F1010191C1B6
:1039F0008FF192C190F1BB840001846B84511C084B
:103A000014E3036A84515D0FE96E010E0320EA6E30
:103A10006F00BCFF93F101019351000186DF030E9B
:103A2000006E002EFED7842BE9D704000C0E006E2A
:103A3000002EFED700D001018F51000176DF040077
:103A40000C0E006E002EFED700D001019051000137
:103A50006CDF1200000101015D6B9FC05EF100018F
:103A6000C2DE010E01015D6F9DC05EF10001BBDE93
:103A7000020E01015D6F9BC05EF10001B4DE000E1D
:103A8000CAB2010E01015C6F030E5D6F5CC15EF195
:103A90000001A9DE000ECAB4010E01015C6F040E24
:103AA0005D6F5CC15EF100019EDE000ECAB6010EC4
:103AB00001015C6F050E5D6F5CC15EF1000193DE7C
:103AC000000ECAB8010E01015C6F060E5D6F5CC18D
:103AD0005EF1000188DE000ECABA010E01015C6FC2
:103AE000070E5D6F5CC15EF100017DDE39019491CE
:103AF0005EC0BEF05DC0BDF0000E1DB2010E000143
:103B0000BF6FC06B000E1DB4010EC16FC26B41527E
:103B100006E1425204E1435202E1445222E01DA276
:103B200020D04150455C01015C6F425046585D6FAA
:103B3000435047585E6F445048585F6FD892636F48
:103B40005EC162F15DC161F15CC160F1676B666B82
:103B5000656B0A0E646F000164DE01C0C4F000C032
:103B6000C3F0000EB3B7010EC56FC66B000EB3B93C
:103B7000010EC76FC86B52C0CAF051C0C9F056C021
:103B8000CCF055C0CBF067C0CDF068C0CEF00001DE
:103B9000000165C0CFF066C0D0F02FC1D2F02EC1B9
:103BA000D1F0000E010121B1010E010A2191E8B00E
:103BB0002181395316E13A5314E1000E1BB0010E76
:103BC000010A1B90E8B01B801BA006D0040E5C6F9E
:103BD0000001B2DE05D00101050E5C6F0001ACDE14
:103BE0000101392BD8B43A2B3A5303E13951020879
:103BF00003E23A6B396BBB943C0EB16EB00EB06E03
:103C000000003901A4919481A49100013CEF08F0D7
:103C10000001232A235009080AE2000E1CBE010EEF
:103C2000010A1C9EE8B01C8E236A7B2B7C2B010EA4
:103C30004126D8B0422AD8B4432AD8B4442A48509E
:103C4000445C15E30BE14750435C11E307E1465048
:103C5000425C0DE303E14150455C09E2446A436A7A
:103C6000426A416A4C6A4B6A4A6A010E496E7D2B70
:103C70003C0EA56EB00EA46E00003901A69DA69D57
:103C800000013CEF08F00001CDB806D0CDAA04D069
:103C9000CCAE02D0010E2B6ECDB806D0CDBA04D07A
:103CA000CCBE02D0020E2B6ECDA806D0CDBA04D069
:103CB000CCAE02D0030E2B6ECDA806D0CDAA04D078
:103CC000CCBE02D0040E2B6ECDA806D0CDAA04D057
:103CD000CCAE02D0050E2B6ECDB806D0CDBA04D036
:103CE000CCAE02D0060E2B6ECDB806D0CDAA04D035
:103CF000CCBE02D0070E2B6ECDA806D0CDBA04D014
:103D0000CCBE02D0080E2B6ECC9C0A0E01015C6F5B
:103D1000020E5C255D6F1CBC87D000018D5325E130
:103D200052AE03D05EAE0CD002D05EBE07D0525071
:103D30005E5C04E305E15D50515C02E3CAA203D07E
:103D40009995B3971D825EAE03D052AE0AD002D0D1
:103D500052BE0AD05E50525C07E303E151505D5CF5
:103D600003E2CAB201D01D9213D052AE03D05EAEB0
:103D70000AD002D05EBE0BD052505E5C08E303E175
:103D80005D50515C04E29995B3971D8201D01D925C
:103D90005EAE03D056AE0AD002D056BE0DD05E50F5
:103DA000565C0AE303E155505D5C06E2B3A904D01A
:103DB000B39BB39DB3991D8456AE03D05EAE0AD0BB
:103DC00002D05EBE0AD056505E5C07E303E15D5050
:103DD000555C03E2B3A701D01D9458AE03D05EAE8C
:103DE0000AD002D05EBE0BD058505E5C08E303E1FF
:103DF0005D50575C04E2B3A702D0B39DB38B5EAEB7
:103E000003D05CAE0AD002D05CBE0DD05E505C5CCC
:103E10000AE303E15B505D5C06E2B3A904D0B3BBE7
:103E200002D0B38BB38D01010001B3B71DD0B3B97C
:103E30001BD01DB819D0BA9C7D6B1B92606B5F6A5A
:103E400062696169AF6BB39BB39D5EAE03D056AE42
:103E50000AD002D056BE08D05E50565C05E303E19E
:103E600055505D5C01E21D84B3A703D01CBC01D09A
:103E7000B39DB3B702D0B3A923D0BA8CAF2BAF5147
:103E8000320807E2AF51340804E35EC060F05DC061
:103E90005FF0AF51640807E2AF51660804E35EC00B
:103EA00062F05DC061F0AF51C8080AE25F50615D29
:103EB00005E16051625D02E11B8201D01B92AF6B94
:103EC000CAA00DD09C2B9C5101015C5D06E2010E45
:103ED00000019B6F5DC19CF0010104D000019B6B50
:103EE0009C6B01010001913D14D0CAB60CD0AA2BE5
:103EF000AA5101015C5D05E20001A96B5DC1AAF058
:103F0000010105D00001010EA96FAA6B010113D0B8
:103F10000001CAA60DD0AE2BAE5101015C5D06E2D8
:103F2000010E0001AD6F5DC1AEF0010104D00001D2
:103F3000AD6BAE6B01010001855322E1CBB81BD004
:103F4000A02BA05101015C5D14E25DC1A0F0000155
:103F5000B02BD8B4B12BB15303E1B051050807E23F
:103F6000010EB16FF50EB06F010E9F6F01D09F6B08
:103F7000010107D00001010E9F6FA06BB16BB06B08
:103F800001010001853D11D0CBB80CD0A02BA05170
:103F900001015C5D05E200019F6B5DC1A0F00101C4
:103FA00005D00001010E9F6FA06B0101CBBA0CD0B0
:103FB00000019E2B9E5101015C5D05E200019D6B9D
:103FC0005DC19EF0010105D0010E00019D6F9E6B49
:103FD00001010001913D16D0010EAB6FCAB40CD0A7
:103FE000A22BA25101015C5D05E20001A16B5DC144
:103FF000A2F0010105D00001010EA16FA26B010129
:1040000015D00001010EA16FCAB40CD0AC2BAC517D
:1040100001015C5D05E20001AB6B5DC1ACF001012B
:1040200005D00001010EAB6FAC6B0101CAA225D017
:104030000001B3B902D0010120D05EAE03D058AE6A
:1040400012D004D058AE02D0010117D05E50585C97
:10405000D8B002D0010111D006E157505D5CD8A064
:1040600002D001010AD0A42BA451010804E2010EE0
:10407000A36F030EA46F04D001010001A36BA46B16
:1040800063515524016E64515620036E015003AEF6
:1040900003D05EAE0AD002D05EBE12D003505E5C8A
:1040A0000FE303E15D50015C0BE2CAA809D0A62B27
:1040B000A651010804E2010EA56F030EA66F02D0FF
:1040C000A56BA66BCAAA09D0A82BA851010804E2C7
:1040D000010EA76F030EA86F02D0A76BA86B9B2DD4
:1040E00001D03BD0913D39D08E532EE1B39199BF91
:1040F000B3818F3D07D0B3931DB2B383B3951DB485
:10410000B38521D0B3A701D01D8C1BA603D0B3A9C2
:1041100001D01D8E1DAC0AD01DA208D0902BB383F8
:104120009051320803E21D9CB393906B1DAE0BD0EF
:104130001DA409D0902BB3859051320804E21D9E36
:104140001B96B395906B09D0B39199BFB381B3938C
:1041500099BFB383B39599BFB385A95305E1913D49
:1041600003D08C3D01D0998DA95307E1913D05D035
:104170008C3D01D002D0998799999F5305E18C3DE0
:1041800001D002D0998999979F5305E18C3D01D0C8
:1041900002D0B3B909D0A95308E1913D06D08C3DB6
:1041A00001D003D0B3A901D0998B915328E19B533F
:1041B0000CE1AD530AE1A35308E1A55306E1A7536F
:1041C00004E1B4B302D0B4A501D0B39F9B530DE179
:1041D000AD530BE1A35309E1A55307E1A75305E153
:1041E000B4B303D0B4B501D0B38F9B5302E1AD5348
:1041F00001E0B4919B5303E1AD5301E1B481923DE1
:1042000028D0913D0DD0BE9099BFBE80BE92B3B173
:10421000BE82BE94B3B3BE84BA9EB3B5BA8E0CD080
:10422000BE90B4B1BE80BE92B3BFBE82BE941DB27A
:10423000BE84BA9E1DB4BA8EBC96B3B7BC86BC947D
:10424000B3B9BC84BC92B3BBBC82BC90B3BDBC80D0
:1042500026D0913D07D0BE90B3B3BE80BE92B3B519
:10426000BE820BD0BE90B3BFBE80006AB3BF002A2F
:10427000010E001ABE9200B0BE82BE94B3B7BE84D7
:10428000BA9EB3B9BA8EBC96B3B7BC86BC94B3B968
:10429000BC84BC92B3BBBC82BC90B3BDBC80915308
:1042A00000E13C0E996EB00E986E00003901A89D99
:1042B00000013CEF08F00001CC8C3D01E1B717D0C4
:1042C000E1B315D0E1AD06D06F0040F729F01D9A9B
:1042D0001C9803D06F0040F73FF03FC05EF029C04C
:1042E0005DF01DB603D0FF0E5D1A5E1A04D06F009C
:1042F00040F75CF1E19300017D6B3D01D051390144
:10430000A69500013CEF08F0000101012C6B39017A
:10431000A39F00013CEF08F000016F00A0F75CF1E3
:1043200001012C5107080BE32C512C2B036A220F9F
:10433000E96E010E0320EA6E600073F5EFFFB8A886
:1043400001D0B768060EB66E2251050813E123515D
:10435000100810E124530EE125530CE126530AE125
:1043600027510B0807E12851800804E129514A0828
:1043700001E121852251040813E12351100810E1C5
:1043800024530EE125530CE126530AE127510B0873
:1043900007E12851810804E129519B0801E12183AB
:1043A0003901A39700013CEF08F020202044455438
:1043B000454354414E444F20202000002020204CF3
:1043C0004F4F50494E47202E2E2E2E2E00002020DB
:1043D00020204C4F4F50494E4720202020200000E5
:1043E000202020204445544543544544202020208B
:1043F0000000202020204C4F4F50494E47202020C5
:10440000202000002020202050524553454E544586
:10441000202020200000202020204C4F4F50494ECB
:10442000472020202020000020204E4F54204445CB
:1044300054454354454420200000202020204C4F68
:104440004F50494E472020202020000020202020CF
:10445000415553454E544520202020200000205037
:104460004F525441202046454348414441200000DA
:104470004349434C4F532025394C75002050554536
:104480005254412043455252414441200000434987
:10449000434C4F532025394C75002020434C4F533B
:1044A000454420444F4F5220202000004359434CA4
:1044B00045532025394C750020504F52544120203F
:1044C000464543484144412000004349434C4F5333
:1044D0002025394C75002050554552544120434504
:1044E00052524144412000004349434C4F53202540
:1044F000394C75002020434C4F53454420444F4FC6
:104500005220202000004359434C45532025394C6C
:104510007500504F5254412046454348414441257F
:10452000334C75004349434C4F532025394C75009B
:104530005055455254414345525241444125334C14
:1045400075004349434C4F532025394C7500444F67
:104550004F5220434C4F534544202025334C750087
:104560004359434C45532025394C7500583120257B
:104570006325632563256325632563256325632000
:104580004C50202563002020205553415220415596
:10459000585F494E202000002020205041524120E9
:1045A000524553455441522000002020205553418C
:1045B00052204155585F494E2020000020202050B5
:1045C0004152412052455345544152200000202081
:1045D00055534152202042412F42462020200000C6
:1045E000202050415241204645434841522020203E
:1045F0000000583120256325632563256325632545
:104600006325632563204C50202563005831202505
:10461000632563256325632563256325632563205F
:104620004C50202563004359434C45532025394CB9
:1046300075004349434C4F532025394C7500583180
:10464000202563256325632563256325632563256D
:1046500063204C502025630020504F5254412020AD
:10466000464543484144412000004349434C4F5391
:104670002025394C75002050554552544120434562
:1046800052524144412000004349434C4F5320259E
:10469000394C75002020434C4F53454420444F4F24
:1046A0005220202000004359434C45532025394CCB
:1046B000750058312025632563256325632563250F
:1046C0006325632563204C50202563002020454E40
:1046D0005452454142455254412020200000434954
:1046E000434C4F532025394C75002020454E5452E1
:1046F000454142494552544F202000004349434C14
:104700004F532025394C7500202020444F4F522014
:10471000414A41522020202000004359434C455338
:104720002025394C750058312025632563256325E4
:10473000632563256325632563204C502025630092
:1047400020504F5254412020414252494E444F2064
:1047500000005055455254412041425249454E4473
:104760004F2000002020444F4F52204F50454E49CB
:104770004E4720200000524544555A2020204142F7
:104780004552545552410000524544554349522028
:10479000415045525455524100002020534C4F5730
:1047A000204F50454E494E472020000058312025CB
:1047B00063256325632563256325632563256320BE
:1047C0004C502025630020504F5254412046454311
:1047D00048414E444F20000050554552544120431B
:1047E000455252414E444F2000002020444F4F522A
:1047F00020434C4F53494E4720200000524544551A
:104800005A2046454348414D454E544F00005245BD
:104810004455434520454E204349455252450000EA
:104820002020534C4F5720434C4F53494E47202094
:1048300000004552524F2032202020202020434F9C
:104840004D4D0000434F4E53554C544152204D4165
:104850004E55414C00004552524F2031202020201F
:104860002020434F4D4D0000434F4E53554C544173
:1048700052204D414E55414C00004552524F20327E
:10488000202020202020434F4D4D0000434F4E5309
:10489000554C544152204D414E55414C00006F0043
:1048A00048FF3FF1D29E3901E16B0F0EE06FE59DAD
:1048B000E59FE581E351E59DE58F01013FBFD28E84
:1048C000256E6F0048FF3FF1D29E3901E16B100E5B
:1048D000E06FE59DE59FE581E351E59DE58F0101F1
:1048E0003FBFD28E266E6F0048FF3FF1D29E390146
:1048F000E16B110EE06FE59DE59FE581E351E59DDC
:10490000E58F01013FBFD28E276E6F0048FF3FF158
:10491000D29E3901E16B120EE06FE59DE59FE581C6
:10492000E351E59DE58F01013FBFD28E286E28C07F
:1049300068F027C067F026C066F025C065F000016A
:10494000D8EF5CF0010157B102D0BD9601D0BD8611
:10495000C59657B302D0BD9401D0BD84C59457B558
:1049600002D0BD9201D0BD82C59257B702D0BD9092
:1049700001D0BD80C5900000C498BC880400020E20
:10498000006E002EFED7C498BC9800011200C49A95
:10499000BC9A04004F0E006E002EFED700000101ED
:1049A000545303E0C49ABC8A02D0C49ABC9A000053
:1049B000C498BC985539566F0F0E561756C157F10B
:1049C0000001C0DF010155510F0B566F576F0001F9
:1049D000B9DF1200010EEA6E500EE96EEF5011E0E1
:1049E000050E016EBF0E006E0400002EFDD7012ED5
:1049F000F9D72E0E006E002EFED700000400EF2E19
:104A0000EFD712000101512D01D003D0400E526F9B
:104A100001D0526B010E505D522752518009536FE5
:104A2000546B556F0001B3DF120001014F510C0AA6
:104A3000000107E0060A11E0070A17E0050A1CE07A
:104A400022D00101546B010E556F0001A0DF020E50
:104A50000101506F0001BEDF1DD0010E0101506F3A
:104A6000020E516F0001CEDF15D0010E0101506F13
:104A7000516F0001C7DF0ED00101546B100E556F4E
:104A8000000185DF07D0010E0101546F4FC155F1C0
:104A900000017DDF12000C0E01014F6F0001C5DF28
:104AA0001200C49ABC9AC498BC980F0E0101506FB2
:104AB000000190DF01013F6B3F5102080CE3030E40
:104AC000576F00013FDF050E0101506F000182DFCB
:104AD00001013F2BF1D7020E576F000133DF0101B7
:104AE0003F6B3F5103080EE3036A3F5100014FEC57
:104AF00008F00101406F546B556F000148DF010160
:104B00003F2BEFD7000112000101405142036F001B
:104B1000CCFF01F06F00D0FF00F04303F3500026FC
:104B200041514203F3500020026E000112008E0E2C
:104B3000006E42C101F041C102F0036A015209E175
:104B400002C001F0026A080E005E015202E1006A32
:104B500008D0D89001BE04D0023601360006F9D73D
:104B6000019E120001014151D8B4A5D04D6F4551AD
:104B7000D8B4A1D04D5F05E37F0E4D27D8B09BD0B0
:104B800006D0810E4D5FD8A096D0D8B494D04DC138
:104B900000F0016A026A036A4C6B42C14BF14B8F11
:104BA00043C14AF144C149F1190E4D6F4851495F63
:104BB0000DE2010E4A5F0AE24B5F08E24C5F06E23B
:104BC0004C2B4B2B4A2B4851492728D047514A5F41
:104BD00012E2010E4B5F0FE24C5F0DE24C2B4B2BB0
:104BE00047514A274851492719E34A2B17E14B2BD4
:104BF00015E14C2B13D0465180094B5F0EE2010E9C
:104C00004C5F0BE24C2B465180094B2747514A27FA
:104C1000E9E34B2BE7E14C2BE5D703804D2F01D087
:104C20000BD0D89049374A374B374C37D89003369A
:104C3000023601364E37BAD74EA106D0D89001328F
:104C4000023203324E3302D0000635E04EBF1ED092
:104C5000D89049374A374B374C374851495F07E2BC
:104C6000010E4A5F04E24B5F02E24C5F1AE34751D8
:104C70004A5F05E2010E4B5F02E24C5F12E34651D0
:104C800080094B5F03E2010E4C5F0BE3032A09E14D
:104C9000022A07E1012A05E1002A0DE00132023271
:104CA000033242C14DF146514D1B4DAF02D0018E32
:104CB00006D0019E04D0006A016A026A036A0001FC
:104CC00015EF27F001014C51D8B474D0006E50514B
:104CD000D8B470D0002604E3810E00266BE204D025
:104CE0007F0E005E67E366E04DC154F15151541BE5
:104CF0004D8F518F4F5153036F00D0FF56F14E51DE
:104D000052036F00D0FF03F06F00CCFF55F1530347
:104D1000F3505627F4505523000E03224F515203EF
:104D2000F3505627F4505523000E026A0322022244
:104D30004D515303F3505527F4500322000E022225
:104D40004D515203F3500326F4500222000E016A23
:104D500001224F515103F3505527F4500322000E06
:104D6000022201224E515103F3500326F450022235
:104D7000000E01224D515103F3500226F45001223E
:104D8000002A01BE05D0553703360236013600062B
:104D9000000E55AF0AD0032A02220122015005E17C
:104DA000025003E1035001E1002A54BF018E54AFC9
:104DB000019E04D0006A016A026A036A00011200BF
:104DC0008E0E006E01014151005E42C102F043C1EE
:104DD00001F0028E005209E0D890025202E1015225
:104DE00004E002320132002EF7D742AF05D0011E97
:104DF000021E012AD8B4022A000144EF27F040C164
:104E000042F13FC141F193DE03C044F102C043F1DE
:104E100001C042F100C041F10101486B476B480EEF
:104E2000466F850E456F00019DD603C06FF002C02E
:104E30006EF001C06DF000C06CF05550515C006E1A
:104E40005650525800C070F0716F71C042F170C07E
:104E500041F16DDE03C04FF102C04EF101C04DF1D2
:104E600000C04CF16FC053F16EC052F16DC051F1F2
:104E70006CC050F127DF03C044F102C043F101C010
:104E800042F100C041F19CD702C071F001C070F046
:104E900070C001F071C002F012000A0E0101506FE3
:104EA000000198DD010E0101506F516F0001AADD74
:104EB00012000900F55211E06F00D8FF43F16F00B6
:104EC000DCFF44F16F00D4FF4FF1AFDD60000FF560
:104ED000F6FF600013F5F7FFECD712000A0E010190
:104EE000506F000177DD010E0101506F020E516F0E
:104EF000000188DD1200C39CBB9C080E016E00D02F
:104F00000000018E10D0019E01013F330001D8B096
:104F1000BB8CD8A0BB9C018C06D0019C012EF4D781
:104F200000D00000BB8C840EE96EE92EFED700D0C5
:104F3000000001BEE8D701BCF0D712000B0EA56E31
:104F4000DC0EA46E000044C144F043C143F042C1F2
:104F500042F041C141F048C148F047C147F046C165
:104F600046F045C145F04C6A4B6A4A6A496A3901C4
:104F70005B510400000112002B50050844E03E2C58
:104F800035D0763D07D089DF640EF66E190EF76EC8
:104F900090DF12D0765307E180DF760EF66E190EA1
:104FA000F76E87DF09D076517F0806E176DF880E3D
:104FB000F66E190EF76E7DDF763D06D08FDF9A0E06
:104FC000F66E190EF76E75DF765306E187DFAC0ECD
:104FD000F66E190EF76E6DDF76517F0806E17EDF03
:104FE000BE0EF66E190EF76E64DF0CD056DFD00ED3
:104FF000F66E190EF76E5DDF71DFE20EF66E190EBA
:10500000F76E57DFB9D7120009006F00D8FF44F1DF
:105010006F00DCFF45F16F00D4FF4FF106DD60004B
:1050200013F5F6FF600017F5F7FF0101432F01D0DC
:1050300002D00001E9D70001120001014351016AC9
:10504000425D03E242C100F00CD0006A080E446FDA
:10505000423700364351005CD8B0006E0136442F11
:10506000F7D700011200015040C142F1640E010166
:10507000436F0001E2DF00C040F10150300E08E153
:10508000010141A30FD041B70DD041B9200E04D08A
:105090000101419741994181012601C04FF1000171
:1050A000C4DC010140C142F10A0E436F0001C5DFBB
:1050B00000C040F10150300E08E1010141B70AD0B3
:1050C00041A108D041B9200E0001012601C04FF1D5
:1050D000ACDC0101300E402740C14FF10001A5DCDE
:1050E00012004ADF956B966B01013F912B5003082C
:1050F000D8B470D00001D1DE780EF66E160EF76EC1
:10510000D8DEECDE8A0EF66E160EF76ED2DE2B2C93
:105110002CD0C3DE9C0EF66E160EF76ECADEDEDEF7
:10512000AE0EF66E160EF76EC4DE6F0048FF40F14D
:10513000D29E3901E16B330EE06FE59DE59FE5817D
:10514000E351E59DE58F010140BFD28E00019A6FCA
:1051500001013F81080E406FFA0E506F00013ADCEA
:105160000101402FF9D736D000012B50040830E15F
:1051700094DEC00EF66E160EF76E9BDEAFDED20E1C
:10518000F66E160EF76E95DE9A69D250006ED29EBC
:105190003901E16B330EE06F60006BF2E3F9E59DDE
:1051A000E59FE585550EE66FAA0EE66FE583E5B34C
:1051B000FED7E595E59DE58F0050D212080E01015E
:1051C000406FFA0E506F000105DC0101402FF9D746
:1051D00001018CD73FA19AD000015FDEE40EF66E8C
:1051E000160EF76E090E0101436F00010DDF9AC024
:1051F00040F1130E0101416F000135DFF00EF66E34
:10520000160EF76E040E0101436F0001FDDE66DE2F
:10521000F60EF66E160EF76E4CDE640E0101506F40
:105220000001EAEC24F02B50040801E19A2B640EF3
:105230000101506F0001EAEC24F02B2C01D09A07F9
:105240002B50030861E1FF0E9A1BD250006ED29ED4
:105250003901E16B330EE06F60006BF2E3F9E59D1D
:10526000E59FE585550EE66FAA0EE66FE583E5B38B
:10527000FED7E595E59DE58F0050D2120400840E1F
:10528000006E002EFED700D06F0048FF40F1D29E86
:10529000E16B330EE06FE59DE59FE581E351E59D10
:1052A000E58F010140BFD28E00019A6FFF0E9A1B5D
:1052B000F4DD080EF66E170EF76E090E0101436F4E
:1052C0000001A2DE9AC040F1130E0101416F0001FE
:1052D000CADE140EF66E170EF76E040E0101436F50
:1052E000000192DEFBDD1A0EF66E170EF76EE1DDA1
:1052F000080E0101406FFA0E506F0001EAEC24F035
:105300000101402FF8D73F91010164D70001DCEF84
:1053100035F032DE956B966B2B500308D8B476D0FF
:10532000BCDD8C0EF66E180EF76EC3DDD7DD9E0E5B
:10533000F66E180EF76EBDDD2B2C32D0AEDDB00E42
:10534000F66E180EF76EB5DDC9DDC20EF66E180EDC
:10535000F76EAFDD926BD250006ED29E3901E16BD9
:10536000370EE06F60004BF2E3F9E59DE59FE585C0
:10537000550EE66FAA0EE66FE583E5B3FED7E59519
:10538000E59DE58F0050D212080E01013F6FFA0E25
:10539000506F0001EAEC24F001013F2FF8D7000123
:1053A0002B50040832E179DDD40EF66E180EF76E3C
:1053B00080DD94DDE60EF66E180EF76E7ADD9269EA
:1053C000D250006ED29E3901E16B370EE06F600063
:1053D0004BF2E3F9E59DE59FE585550EE66FAA0ED4
:1053E000E66FE583E5B3FED7E595E59DE58F0050D3
:1053F000D212080E01013F6FFA0E506F0001EAEC65
:1054000024F001013F2FF8D7000186D7E3EF35F0F4
:10541000B3DD956B966B01013F912B500308D8B417
:1054200072D000013ADDC40EF66E150EF76E41DD46
:1054300055DDD60EF66E150EF76E3BDD2B2C2DD0FE
:105440002CDDE80EF66E150EF76E33DD47DDFA0E35
:10545000F66E150EF76E2DDD6F0048FF40F1D29EFF
:105460003901E16B320EE06FE59DE59FE581E35187
:10547000E59DE58F010140BFD28E0001976F0101CC
:105480003F81080E406FFA0E506F0001EAEC24F0E5
:105490000101402FF8D737D000012B50040831E12B
:1054A000FCDC0C0EF66E160EF76E03DD17DD1E0E1D
:1054B000F66E160EF76EFDDC9769D250006ED29E26
:1054C0003901E16B320EE06F60005FF2E3F9E59DB8
:1054D000E59FE585550EE66FAA0EE66FE583E5B319
:1054E000FED7E595E59DE58F0050D212080E01012B
:1054F000406FFA0E506F0001EAEC24F00101402FDA
:10550000F8D701018AD73FA184D00001C6DC300E54
:10551000F66E160EF76E0D0E0101436F000174DD7D
:1055200097C040F1130E0101416F00019CDDD6DCF4
:10553000420EF66E160EF76EBCDC640E0101506F63
:105540000001EAEC24F02B50040801E1972B640ED3
:105550000101506F0001EAEC24F02B2C01D09707D9
:105560002B50030854E1D250006ED29E3901E16BFA
:10557000320EE06F60005FF2E3F9E59DE59FE5859F
:10558000550EE66FAA0EE66FE583E5B3FED7E59507
:10559000E59DE58F0050D2120400840E006E002EAF
:1055A000FED700D06F0048FF40F1D29EE16B320E73
:1055B000E06FE59DE59FE581E351E59DE58F010104
:1055C00040BFD28E0001976F68DC540EF66E160E47
:1055D000F76E0D0E0101436F000116DD97C040F11B
:1055E000130E0101416F00013EDD78DC660EF66EA0
:1055F000160EF76E5EDC080E0101406FFA0E506F5A
:105600000001EAEC24F00101402FF8D73F9101019D
:105610007AD70001EAEF35F0AFDC956B966B2B5033
:105620000308D8B479D039DC580EF66E150EF76E33
:1056300040DC54DC6A0EF66E150EF76E3ADC2B2C4D
:1056400032D02BDC7C0EF66E150EF76E32DC46DCAB
:105650008E0EF66E150EF76E2CDC8C6BD250006E33
:10566000D29E3901E16B310EE06F600033F2E3F955
:10567000E59DE59FE585550EE66FAA0EE66FE5838D
:10568000E5B3FED7E595E59DE58F0050D212080EF3
:1056900001013F6FFA0E506F0001EAEC24F00101A6
:1056A0003F2FF8D700012B50040835E14DEC27F0CF
:1056B000A00EF66E150EF76E59EC27F00FDCB20E49
:1056C000F66E150EF76E59EC27F08C69D250006E0D
:1056D000D29E3901E16B310EE06F600033F2E3F9E5
:1056E000E59DE59FE585550EE66FAA0EE66FE5831D
:1056F000E5B3FED7E595E59DE58F0050D212080E83
:1057000001013F6FFA0E506F0001EAEC24F0010135
:105710003F2FF8D7000183D7F1EF35F02DDC956BE3
:10572000966B2B500308D8B482D04DEC27F02C0E8A
:10573000F66E170EF76E59EC27F06EEC27F03E0E62
:10574000F66E170EF76E59EC27F02B2C36D04DEC79
:1057500027F0500EF66E170EF76E59EC27F06EEC30
:1057600027F0620EF66E170EF76E59EC27F08E6B6F
:10577000D250006ED29E3901E16B2F0EE06F6000B7
:105780003BF2E3F9E59DE59FE585550EE66FAA0E30
:10579000E66FE583E5B3FED7E595E59DE58F00501F
:1057A000D212080E01013F6FFA0E506F0001EAECB1
:1057B00024F001013F2FF8D700012B50040836E1F7
:1057C0004DEC27F0740EF66E170EF76E59EC27F0BD
:1057D0006EEC27F0860EF66E170EF76E59EC27F07A
:1057E0008E69D250006ED29E3901E16B2F0EE06FB0
:1057F00060003BF2E3F9E59DE59FE585550EE66F18
:10580000AA0EE66FE583E5B3FED7E595E59DE58F46
:105810000050D212080E01013F6FFA0E506F0001C6
:10582000EAEC24F001013F2FF8D700017AD7F8EF16
:1058300035F0BCEC27F0956B966B2B500308D8B471
:1058400082D04DEC27F0980EF66E170EF76E59ECDD
:1058500027F06EEC27F0AA0EF66E170EF76E59ECD5
:1058600027F02B2C36D04DEC27F0BC0EF66E170E21
:10587000F76E59EC27F06EEC27F0CE0EF66E170E91
:10588000F76E59EC27F08F6BD250006ED29E390123
:10589000E16B380EE06F60003FF2E3F9E59DE59FB4
:1058A000E585550EE66FAA0EE66FE583E5B3FED7F4
:1058B000E595E59DE58F0050D212080E01013F6F7E
:1058C000FA0E506F0001EAEC24F001013F2FF8D7E7
:1058D00000012B50040836E14DEC27F0E00EF66E87
:1058E000170EF76E59EC27F06EEC27F0F20EF66EFD
:1058F000170EF76E59EC27F08F69D250006ED29ECA
:105900003901E16B380EE06F60003FF2E3F9E59D8D
:10591000E59FE585550EE66FAA0EE66FE583E5B3D4
:10592000FED7E595E59DE58F0050D212080E0101E6
:105930003F6FFA0E506F0001EAEC24F001013F2F97
:10594000F8D700017AD7FFEF35F06F00A8FF47F1D5
:105950006F00A4FF46F1010140AF08D0468F46A971
:10596000462B3F1F401F3F2BD8B4402B4039F00936
:10597000426F4227E20F436F320F456F40510F0BCA
:10598000432743274527E90F446F442744273F39DE
:105990000F0B4427452744374537451F45373F51AF
:1059A0000F0B45274237070E416F0A0E4407452764
:1059B000FDE343074427FDE342074327FDE3410797
:1059C0004227FDE3010EEA6E410EE96E070E461511
:1059D000469DED52461507E146B9EE5246B903D051
:1059E000200E006E20D0E926000EEA22E95045087C
:1059F00003E1EA2C01D0468DEF50006E08E146BD70
:105A000006D046B922D046B702D0200E0BD046AF02
:105A100006D02D0E006EED50469D469F04D0468761
:105A20004699300E00266F00A8FF40F16F00A4FFDA
:105A30003FF100C04FF1000115EC25F0600003F5C7
:105A4000EAFF6000FFF4E9FF0101EE5046ADCED75A
:105A5000000112002C6ACAB02C2A2D6ACBBA2D2A5A
:105A60002E6ACBB82E2A2F6ACAB42F2A306ACAB23D
:105A7000302A316ACAB8312A326ACABA322A336A3B
:105A8000CAB6332A3350800DF35001013F6F3250B4
:105A9000400DF3503F273150200DF3503F27305039
:105AA000100DF3503F272F50080DF3503F272E5075
:105AB000040DF3503F27D8902D343F252C243D6E04
:105AC0000001C8EF2DF0C80E0101506F0001EAEC93
:105AD00024F0010ECD6EC80E0101506F0001EAECFA
:105AE00024F0020ECD6EC80E0101506F0001EAECE9
:105AF00024F0040ECD6EC80E0101506F0001EAECD7
:105B000024F0080ECD6EC80E0101506F0001EAECC2
:105B100024F0100ECD6EC80E0101506F0001EAECAA
:105B200024F0200ECD6EC80E0101506F0001EAEC8A
:105B300024F0CD6A1200C00ED21239019387000101
:105B40004DEC27F0F40EF66E120EF76E0A0E010100
:105B5000436F000104EC28F0000EE96E5EC040F1D6
:105B60005DC03FF1F2DE6EEC27F0040EF66E130E10
:105B7000F76E0D0E0101436F000104EC28F02BC0FD
:105B800040F1030E0101416F000133EC28F062D7B0
:105B90003D50FE0A0FE0030A0FE0060A0FE00C0A70
:105BA0000FE0180A0FE0300A0FE0600A0FE0C00AA9
:105BB0000FE010D088DF0FD086DF0DD084DF0BD050
:105BC00082DF09D080DF07D07EDF05D07CDF03D005
:105BD0007ADF01D0CD6AB4D706EF36F0686B676B19
:105BE000666B656B1C8A65C025F066C026F067C0D1
:105BF00027F068C028F0D250006ED29E3901E16BC8
:105C00000F0EE06F600097F0E3F9E59DE59FE585F5
:105C1000550EE66FAA0EE66FE583E5B3FED7E59570
:105C2000E59DE58F0050D212D250006ED29EE16BFE
:105C3000100EE06F60009BF0E3F9E59DE59FE585C0
:105C4000550EE66FAA0EE66FE583E5B3FED7E59540
:105C5000E59DE58F0050D212D250006ED29EE16BCE
:105C6000110EE06F60009FF0E3F9E59DE59FE5858B
:105C7000550EE66FAA0EE66FE583E5B3FED7E59510
:105C8000E59DE58F0050D212D250006ED29EE16B9E
:105C9000120EE06F6000A3F0E3F9E59DE59FE58556
:105CA000550EE66FAA0EE66FE583E5B3FED7E595E0
:105CB000E59DE58F0050D2126F0048FF43F1D29E60
:105CC000E16B0F0EE06FE59DE59FE581E351E59DFA
:105CD000E58F010143BFD28E256E6F0048FF43F16F
:105CE000D29E3901E16B100EE06FE59DE59FE581E5
:105CF000E351E59DE58F010143BFD28E266E6F0013
:105D000048FF43F1D29E3901E16B110EE06FE59D32
:105D1000E59FE581E351E59DE58F010143BFD28E0B
:105D2000276E6F0048FF43F1D29E3901E16B120EDE
:105D3000E06FE59DE59FE581E351E59DE58F01017C
:105D400043BFD28E286E28C068F027C067F026C0F7
:105D500066F025C065F00001B2EF2FF01D86000E41
:105D60001DB6010E0101436FD250006ED29E390163
:105D7000E16B140EE06F60000FF5E3F9E59DE59F20
:105D8000E585550EE66FAA0EE66FE583E5B3FED70F
:105D9000E595E59DE58F0050D212050E00016B6F71
:105DA000D250006ED29E3901E16B050EE06F6000AB
:105DB000AFF1E3F9E59DE59FE585550EE66FAA0E87
:105DC000E66FE583E5B3FED7E595E59DE58F0050E9
:105DD000D212050E0101406F140E3F6F3FC143F117
:105DE000D250006ED29E3901E16B060EE06F60006A
:105DF000FFF4E3F9E59DE59FE585550EE66FAA0EF4
:105E0000E66FE583E5B3FED7E595E59DE58F0050A8
:105E1000D21240C143F1D250006ED29EE16B070E08
:105E2000E06F600003F5E3F9E59DE59FE585550E1C
:105E3000E66FAA0EE66FE583E5B3FED7E595E59D2F
:105E4000E58F0050D212FE0E0101426FD40E416F59
:105E500041C143F1D250006ED29E3901E16B080E70
:105E6000E06F600007F5E3F9E59DE59FE585550ED8
:105E7000E66FAA0EE66FE583E5B3FED7E595E59DEF
:105E8000E58F0050D21242C143F1D250006ED29E33
:105E9000E16B090EE06F60000BF5E3F9E59DE59F0E
:105EA000E585550EE66FAA0EE66FE583E5B3FED7EE
:105EB000E595E59DE58F0050D21200018569D2502D
:105EC000006ED29E3901E16B150EE06F600017F293
:105ED000E3F9E59DE59FE585550EE66FAA0EE66FB1
:105EE000E583E5B3FED7E595E59DE58F0050D21239
:105EF000140E0001936FD250006ED29E3901E16BF7
:105F00000D0EE06F60004FF2E3F9E59DE59FE5853A
:105F1000550EE66FAA0EE66FE583E5B3FED7E5956D
:105F2000E59DE58F0050D212140E0001946FD250FF
:105F3000006ED29E3901E16B0B0EE06F600053F2F0
:105F4000E3F9E59DE59FE585550EE66FAA0EE66F40
:105F5000E583E5B3FED7E595E59DE58F0050D212C8
:105F600000013CD64DEC27F0160EF66E130EF76EC0
:105F700059EC27F06EEC27F0280EF66E130EF76E34
:105F800059EC27F0080E0101436FFA0E506F000123
:105F9000EAEC24F00101432FF8D700010DEF36F0B1
:105FA000BCEC27F0956B966BBCEC27F02B500308EC
:105FB000D8B4B1D04DEC27F0040EF66E180EF76E83
:105FC00059EC27F06EEC27F0160EF66E180EF76EF1
:105FD00059EC27F01C8C2B2C7DD055505D5C006E4D
:105FE00056505E5800C063F0646F4DEC27F0280EE9
:105FF000F66E180EF76E090E0101436F000104ECF6
:1060000028F0000EE96E5EC040F15DC03FF19DDCFE
:106010006EEC27F0360EF66E180EF76E090E0101C3
:10602000436F000104EC28F0000EE96E56C040F109
:1060300055C03FF18ADC60008FF1E3F9D250006E69
:10604000D29E3901E16B390EE06FE59DE59FE58554
:10605000550EE66FAA0EE66FE583E5B3FED7E5952C
:10606000E59DE58F0050D212600093F1E3F9D25024
:10607000006ED29EE16B3A0EE06FE59DE59FE585EF
:10608000550EE66FAA0EE66FE583E5B3FED7E595FC
:10609000E59DE58F0050D21200014DEC27F0440E33
:1060A000F66E180EF76E59EC27F06EEC27F0560ED0
:1060B000F66E180EF76E59EC27F0080E01013F6FCF
:1060C000FA0E506F0001EAEC24F001013F2FF8D7DF
:1060D000000121D02B5004081DE14DEC27F0680E83
:1060E000F66E180EF76E59EC27F06EEC27F07A0E6C
:1060F000F66E180EF76E59EC27F0080E01013F6F8F
:10610000FA0E506F0001EAEC24F001013F2FF8D79E
:10611000000101D04BD715EF36F001014C51B60804
:106120004C6F036A4DC150F14D8FD8904D334E33B3
:106130004F3303320232013200324C2FF6D750AFC8
:106140000BD0001E011E021E031E002AD8B4012A15
:10615000D8B4022AD8B4032A0001DBEF30F0E950AA
:106160000101446F4351466F1CE042C14FF141C1F0
:106170004EF140C14DF13FC14CF1536B526B200EBB
:10618000516F820E506F000162EC26F003C042F1A5
:1061900002C041F101C040F100C03FF10101462FB2
:1061A000E4D742C14FF141C14EF140C14DF13FC171
:1061B0004CF10001B2D703C042F102C041F101C06D
:1061C00040F100C03FF1010142AF0DD04407448BC4
:1061D0003F1F401F411F421F3F2BD8B4402BD8B454
:1061E000412BD8B4422B3B0E4B6F9A0E4A6FCA0E0E
:1061F000496F486B0A0E466F4351D8B4442BD8827E
:10620000010EEA6E3F0EE96E196AD2BE198ED29E59
:1062100042C163F141C162F140C161F13FC160F12E
:106220004BC167F14AC166F149C165F148C164F1EA
:10623000000111EC1CF019BED28E0150005213E186
:1062400001014329465DD8A402D000010CD044517D
:106250000DE00F0B465D01E044E244BF42D044BD77
:1062600005D0200E37D0200E0101441744AB0FD0CB
:10627000449B4351D8A444070050446F2D0E4F6FE8
:10628000000115EC25F001014451006E446B4351AF
:10629000465D0DE10050446F2E0E4F6F000115EC6E
:1062A00025F001014451006E200E4417000E300EFF
:1062B00044AB10D0449B4351D8A444070050446FD2
:1062C0002D0E4F6F000115EC25F001014451006EB9
:1062D000446B300E002600C04FF1000115EC25F094
:1062E0000101D892196AD2BE198ED29E4BC163F1B8
:1062F0004AC162F149C161F148C160F1676B666BE7
:10630000656B0A0E646F000111EC1CF019BED28E91
:1063100003C04BF102C04AF101C049F100C048F18D
:106320000101462F6CD7000112002B50030811E128
:106330004DEC27F03A0EF66E130EF76E59EC27F07F
:106340006EEC27F04C0EF66E130EF76E59EC27F03C
:10635000ECD72B50030873E08AC08BF08A51FF0AF8
:106360008B6F0101426B8BC041F1000197EC25F06E
:1063700003C04FF102C04EF101C04DF100C04CF11D
:10638000550E0101536FC10E526F480E516F7D0EB5
:10639000506F000162EC26F003C089F002C088F063
:1063A00001C087F000C086F04DEC27F05E0EF66E5F
:1063B000130EF76E0D0E0101436F000104EC28F07F
:1063C000010EE96E89C042F188C041F187C040F1F9
:1063D00086C03FF10101436B0001C1DE250E0101C2
:1063E0004F6F000115EC25F06EEC27F0740EF66E81
:1063F000130EF76E59EC27F02B2C0BD08A2B0A0EBC
:106400000101506F0001EAEC24F08AC03FF17BECFF
:1064100027F02B5004080BE18A070A0E0101506F88
:106420000001EAEC24F08AC03FF17BEC27F02B500E
:10643000050804E1B397B399B39BB39D8AD7020EC5
:1064400001013F6FFA0E506F0001EAEC24F00101E8
:106450003F2FF8D700011CEF36F0BCEC27F0956B0E
:10646000966B6F0048FF40F1D29E3901E16B3D0E03
:10647000E06FE59DE59FE581E351E59DE58F010135
:1064800040BFD28E00017F6F8D53D8A423D12B50F3
:10649000030850E04DEC27F0F20EF66E130EF76E87
:1064A00059EC27F06EEC27F0040EF66E140EF76E22
:1064B00059EC27F02B2C1ED04DEC27F0160EF66E63
:1064C000140EF76E59EC27F06EEC27F0280EF66EDE
:1064D000140EF76E59EC27F001013F81080E406F52
:1064E000FA0E506F0001EAEC24F00101402FF8D7BA
:1064F000000120D02B5004081CE14DEC27F03A0E8F
:10650000F66E140EF76E59EC27F06EEC27F04C0E79
:10651000F66E140EF76E59EC27F0080E0101406F6D
:10652000FA0E506F0001EAEC24F00101402FF8D779
:106530000001ADD76F0048FF40F1D29E3901E16BF9
:106540003D0EE06FE59DE59FE581E351E59DE58F1B
:10655000010140BFD28E00017F6F01013FA1B8D081
:1065600000017F515A0801E27F6B4DEC27F05C0E71
:10657000F66E140EF76E090E0101436F000104EC74
:1065800028F07FC040F1130E0101416F000133EC90
:1065900028F0680EF66E140EF76E040E0101436FBC
:1065A000000104EC28F06EEC27F06E0EF66E140E6F
:1065B000F76E59EC27F0640E0101506F0001EAEC10
:1065C00024F02B50040801E17F2B640E0101506F71
:1065D0000001EAEC24F02B2C01D07F072B5003089C
:1065E00075E1D250006ED29E3901E16B3D0EE06F35
:1065F0006000FFF1E3F9E59DE59FE585550EE66F47
:10660000AA0EE66FE583E5B3FED7E595E59DE58F38
:106610000050D2120400840E006E002EFED700D06F
:106620006F0048FF40F1D29EE16B3D0EE06FE59DAB
:10663000E59FE581E351E59DE58F010140BFD28EE5
:1066400000017F6F4DEC27F0800EF66E140EF76E92
:10665000090E0101436F000104EC28F07FC040F1F6
:10666000130E0101416F000133EC28F08C0EF66E21
:10667000140EF76E040E0101436F000104EC28F0C4
:106680006EEC27F0920EF66E140EF76E59EC27F0B2
:106690000101416B7FC040F1020E436F580E426F03
:1066A000000184EC25F0836B826B02C081F001C095
:1066B00080F0080E0101406FFA0E506F0001EAEC05
:1066C00024F00101402FF8D73F91000146D7010186
:1066D0001CD000014DEC27F0A40EF66E140EF76EE0
:1066E00059EC27F06EEC27F0B60EF66E140EF76E2E
:1066F00059EC27F0080E0101406FFA0E506F0001AF
:10670000EAEC24F00101402FF8D7000123EF36F026
:10671000BCEC27F0956B966B2B500308D8B4A7D030
:10672000913D94D04DEC27F0C80EF66E140EF76E26
:1067300059EC27F06EEC27F0DA0EF66E140EF76EB9
:1067400059EC27F02B2C48D04DEC27F0EC0EF66ED0
:10675000140EF76E59EC27F06EEC27F0FE0EF66E75
:10676000140EF76E59EC27F08D6BD250006ED29E4E
:106770003901E16B2D0EE06F600037F2E3F9E59D22
:10678000E59FE585550EE66FAA0EE66FE583E5B356
:10679000FED7E595E59DE58F0050D2126F0048FFCA
:1067A0003FF1D29EE16B2D0EE06FE59DE59FE58107
:1067B000E351E59DE58F01013FBFD28E00018D6F52
:1067C000080E01013F6FFA0E506F0001EAEC24F051
:1067D00001013F2FF8D700012B50040836E14DECA2
:1067E00027F0100EF66E150EF76E59EC27F06EECD2
:1067F00027F0220EF66E150EF76E59EC27F08D6914
:10680000D250006ED29E3901E16B2D0EE06F600018
:1068100037F2E3F9E59DE59FE585550EE66FAA0E93
:10682000E66FE583E5B3FED7E595E59DE58F00507E
:10683000D212080E01013F6FFA0E506F0001EAEC10
:1068400024F001013F2FF8D7000110D04DEC27F0C4
:10685000340EF66E150EF76E59EC27F06EEC27F03D
:10686000460EF66E150EF76E59EC27F055D729EF48
:1068700036F0BCEC27F0956B966B2B500308D8B420
:1068800082D04DEC27F0860EF66E130EF76E59ECA3
:1068900027F06EEC27F0980EF66E130EF76E59EC9B
:1068A00027F02B2C36D04DEC27F0AA0EF66E130EE7
:1068B000F76E59EC27F06EEC27F0BC0EF66E130E57
:1068C000F76E59EC27F0916BD250006ED29E3901D1
:1068D000E16B300EE06F600047F2E3F9E59DE59F64
:1068E000E585550EE66FAA0EE66FE583E5B3FED7A4
:1068F000E595E59DE58F0050D212080E01013F6F2E
:10690000FA0E506F0001EAEC24F001013F2FF8D796
:1069100000012B50040836E14DEC27F0CE0EF66E48
:10692000130EF76E59EC27F06EEC27F0E00EF66EC2
:10693000130EF76E59EC27F09169D250006ED29E7B
:106940003901E16B300EE06F600047F2E3F9E59D3D
:10695000E59FE585550EE66FAA0EE66FE583E5B384
:10696000FED7E595E59DE58F0050D212080E010196
:106970003F6FFA0E506F0001EAEC24F001013F2F47
:10698000F8D700017AD72FEF36F0BCEC27F0956BE3
:10699000966B2B500308D8B4BBD09551090801E27F
:1069A000956B9651090801E2966B4DEC27F02A0E83
:1069B000F66E2B0EF76E59EC27F06EEC27F03C0EBE
:1069C000F66E2B0EF76E080E0101436F000104EC0A
:1069D00028F095C040F1180E0101416F000133EC21
:1069E00028F0470EF66E2B0EF76E050E0101436F71
:1069F000000104EC28F096C040F1180E0101416F2F
:106A0000000133EC28F0200E01014F6F000115EC5E
:106A100025F02B5004083DE1962B2B50040839E15A
:106A20009651090801E2966B4DEC27F0520EF66E76
:106A30002B0EF76E59EC27F06EEC27F0640EF66E15
:106A40002B0EF76E080E0101436F000104EC28F0D5
:106A500095C040F1180E0101416F000133EC28F0A0
:106A60006F0EF66E2B0EF76E050E0101436F0001DF
:106A700004EC28F096C040F1180E0101416F0001AE
:106A800033EC28F0200E01014F6F000115EC25F0CA
:106A9000C4D72B2C3CD0952B2B2C39D095510908E1
:106AA00001E2956B4DEC27F07A0EF66E2B0EF76E29
:106AB00059EC27F06EEC27F08C0EF66E2B0EF76E6D
:106AC000080E0101436F000104EC28F095C040F16D
:106AD000180E0101416F000133EC28F0970EF66E9D
